{
  "_format": "hh-sol-artifact-1",
  "contractName": "Tracking",
  "sourceName": "contracts/Tracking.sol",
  "abi": [
    {
      "inputs": [],
      "stateMutability": "nonpayable",
      "type": "constructor"
    },
    {
      "anonymous": false,
      "inputs": [
        {
          "indexed": true,
          "internalType": "address",
          "name": "sender",
          "type": "address"
        },
        {
          "indexed": true,
          "internalType": "address",
          "name": "reciver",
          "type": "address"
        },
        {
          "indexed": false,
          "internalType": "uint256",
          "name": "pickupTime",
          "type": "uint256"
        },
        {
          "indexed": false,
          "internalType": "uint256",
          "name": "distance",
          "type": "uint256"
        },
        {
          "indexed": false,
          "internalType": "uint256",
          "name": "price",
          "type": "uint256"
        }
      ],
      "name": "ShipmentCreated",
      "type": "event"
    },
    {
      "anonymous": false,
      "inputs": [
        {
          "indexed": true,
          "internalType": "address",
          "name": "sender",
          "type": "address"
        },
        {
          "indexed": true,
          "internalType": "address",
          "name": "reciver",
          "type": "address"
        },
        {
          "indexed": false,
          "internalType": "uint256",
          "name": "deliveryTime",
          "type": "uint256"
        }
      ],
      "name": "ShipmentDelivered",
      "type": "event"
    },
    {
      "anonymous": false,
      "inputs": [
        {
          "indexed": true,
          "internalType": "address",
          "name": "sender",
          "type": "address"
        },
        {
          "indexed": true,
          "internalType": "address",
          "name": "reciver",
          "type": "address"
        },
        {
          "indexed": false,
          "internalType": "uint256",
          "name": "pickupTime",
          "type": "uint256"
        }
      ],
      "name": "ShipmentInTransit",
      "type": "event"
    },
    {
      "anonymous": false,
      "inputs": [
        {
          "indexed": true,
          "internalType": "address",
          "name": "sender",
          "type": "address"
        },
        {
          "indexed": true,
          "internalType": "address",
          "name": "reciver",
          "type": "address"
        },
        {
          "indexed": false,
          "internalType": "uint256",
          "name": "amount",
          "type": "uint256"
        }
      ],
      "name": "ShipmentPaid",
      "type": "event"
    },
    {
      "inputs": [
        {
          "internalType": "address",
          "name": "_sender",
          "type": "address"
        },
        {
          "internalType": "address",
          "name": "_receiver",
          "type": "address"
        },
        {
          "internalType": "uint256",
          "name": "_index",
          "type": "uint256"
        }
      ],
      "name": "completeShipment",
      "outputs": [],
      "stateMutability": "nonpayable",
      "type": "function"
    },
    {
      "inputs": [
        {
          "internalType": "address",
          "name": "_receiver",
          "type": "address"
        },
        {
          "internalType": "uint256",
          "name": "_pickupTime",
          "type": "uint256"
        },
        {
          "internalType": "uint256",
          "name": "_distance",
          "type": "uint256"
        },
        {
          "internalType": "uint256",
          "name": "_price",
          "type": "uint256"
        }
      ],
      "name": "createShipment",
      "outputs": [],
      "stateMutability": "payable",
      "type": "function"
    },
    {
      "inputs": [],
      "name": "getAllTransactions",
      "outputs": [
        {
          "components": [
            {
              "internalType": "address",
              "name": "sender",
              "type": "address"
            },
            {
              "internalType": "address",
              "name": "receiver",
              "type": "address"
            },
            {
              "internalType": "uint256",
              "name": "pickupTime",
              "type": "uint256"
            },
            {
              "internalType": "uint256",
              "name": "deliveryTime",
              "type": "uint256"
            },
            {
              "internalType": "uint256",
              "name": "distance",
              "type": "uint256"
            },
            {
              "internalType": "uint256",
              "name": "price",
              "type": "uint256"
            },
            {
              "internalType": "enum Tracking.ShipmentStatus",
              "name": "status",
              "type": "uint8"
            },
            {
              "internalType": "bool",
              "name": "isPaid",
              "type": "bool"
            }
          ],
          "internalType": "struct Tracking.TypeShipment[]",
          "name": "",
          "type": "tuple[]"
        }
      ],
      "stateMutability": "view",
      "type": "function"
    },
    {
      "inputs": [
        {
          "internalType": "address",
          "name": "_sender",
          "type": "address"
        },
        {
          "internalType": "uint256",
          "name": "_index",
          "type": "uint256"
        }
      ],
      "name": "getShipment",
      "outputs": [
        {
          "internalType": "address",
          "name": "",
          "type": "address"
        },
        {
          "internalType": "address",
          "name": "",
          "type": "address"
        },
        {
          "internalType": "uint256",
          "name": "",
          "type": "uint256"
        },
        {
          "internalType": "uint256",
          "name": "",
          "type": "uint256"
        },
        {
          "internalType": "uint256",
          "name": "",
          "type": "uint256"
        },
        {
          "internalType": "uint256",
          "name": "",
          "type": "uint256"
        },
        {
          "internalType": "enum Tracking.ShipmentStatus",
          "name": "",
          "type": "uint8"
        },
        {
          "internalType": "bool",
          "name": "",
          "type": "bool"
        }
      ],
      "stateMutability": "view",
      "type": "function"
    },
    {
      "inputs": [
        {
          "internalType": "address",
          "name": "_sender",
          "type": "address"
        }
      ],
      "name": "getShipmentCount",
      "outputs": [
        {
          "internalType": "uint256",
          "name": "",
          "type": "uint256"
        }
      ],
      "stateMutability": "view",
      "type": "function"
    },
    {
      "inputs": [],
      "name": "shipmentCount",
      "outputs": [
        {
          "internalType": "uint256",
          "name": "",
          "type": "uint256"
        }
      ],
      "stateMutability": "view",
      "type": "function"
    },
    {
      "inputs": [
        {
          "internalType": "address",
          "name": "",
          "type": "address"
        },
        {
          "internalType": "uint256",
          "name": "",
          "type": "uint256"
        }
      ],
      "name": "shipments",
      "outputs": [
        {
          "internalType": "address",
          "name": "sender",
          "type": "address"
        },
        {
          "internalType": "address",
          "name": "receiver",
          "type": "address"
        },
        {
          "internalType": "uint256",
          "name": "pickupTime",
          "type": "uint256"
        },
        {
          "internalType": "uint256",
          "name": "deliveryTime",
          "type": "uint256"
        },
        {
          "internalType": "uint256",
          "name": "distance",
          "type": "uint256"
        },
        {
          "internalType": "uint256",
          "name": "price",
          "type": "uint256"
        },
        {
          "internalType": "enum Tracking.ShipmentStatus",
          "name": "status",
          "type": "uint8"
        },
        {
          "internalType": "bool",
          "name": "isPaid",
          "type": "bool"
        }
      ],
      "stateMutability": "view",
      "type": "function"
    },
    {
      "inputs": [
        {
          "internalType": "address",
          "name": "_sender",
          "type": "address"
        },
        {
          "internalType": "address",
          "name": "_receiver",
          "type": "address"
        },
        {
          "internalType": "uint256",
          "name": "_index",
          "type": "uint256"
        }
      ],
      "name": "startShipment",
      "outputs": [],
      "stateMutability": "nonpayable",
      "type": "function"
    }
  ],
  "bytecode": "0x608060405234801561001057600080fd5b50600060018190555061186b806100286000396000f3fe60806040526004361061007b5760003560e01c80638365da541161004e5780638365da5414610141578063aace20b714610185578063b7dfd93d146101b0578063cbc4b181146101ed5761007b565b8063179a878c1461008057806327506f53146100a95780635667e02f146100d45780637ff5265d14610118575b600080fd5b34801561008c57600080fd5b506100a760048036038101906100a291906110e5565b610209565b005b3480156100b557600080fd5b506100be6105dd565b6040516100cb919061133a565b60405180910390f35b3480156100e057600080fd5b506100fb60048036038101906100f6919061135c565b610767565b60405161010f9897969594939291906113d8565b60405180910390f35b34801561012457600080fd5b5061013f600480360381019061013a91906110e5565b610826565b005b34801561014d57600080fd5b506101686004803603810190610163919061135c565b610a82565b60405161017c9897969594939291906113d8565b60405180910390f35b34801561019157600080fd5b5061019a610b90565b6040516101a79190611456565b60405180910390f35b3480156101bc57600080fd5b506101d760048036038101906101d29190611471565b610b96565b6040516101e49190611456565b60405180910390f35b6102076004803603810190610202919061149e565b610be1565b005b60008060008573ffffffffffffffffffffffffffffffffffffffff1673ffffffffffffffffffffffffffffffffffffffff168152602001908152602001600020828154811061025b5761025a611505565b5b9060005260206000209060070201905060006002838154811061028157610280611505565b5b906000526020600020906007020190508373ffffffffffffffffffffffffffffffffffffffff168260010160009054906101000a900473ffffffffffffffffffffffffffffffffffffffff1673ffffffffffffffffffffffffffffffffffffffff1614610323576040517f08c379a000000000000000000000000000000000000000000000000000000000815260040161031a90611591565b60405180910390fd5b6001600281111561033757610336611182565b5b8260060160009054906101000a900460ff16600281111561035b5761035a611182565b5b1461039b576040517f08c379a0000000000000000000000000000000000000000000000000000000008152600401610392906115fd565b60405180910390fd5b8160060160019054906101000a900460ff16156103ed576040517f08c379a00000000000000000000000000000000000000000000000000000000081526004016103e490611669565b60405180910390fd5b60028260060160006101000a81548160ff0219169083600281111561041557610414611182565b5b021790555060028160060160006101000a81548160ff0219169083600281111561044257610441611182565b5b02179055504282600301819055504281600301819055506000826005015490508260000160009054906101000a900473ffffffffffffffffffffffffffffffffffffffff1673ffffffffffffffffffffffffffffffffffffffff166108fc829081150290604051600060405180830381858888f193505050501580156104cc573d6000803e3d6000fd5b5060018360060160016101000a81548160ff02191690831515021790555060018260060160016101000a81548160ff0219169083151502179055508473ffffffffffffffffffffffffffffffffffffffff168673ffffffffffffffffffffffffffffffffffffffff167f3746ccceb54f44c9b0ee0120e596168d07ec9f6ca303cfdd9810d3b2e2686a2e85600301546040516105689190611456565b60405180910390a38473ffffffffffffffffffffffffffffffffffffffff168673ffffffffffffffffffffffffffffffffffffffff167f2b6f2473aebafaf8d0889669490135928ec4454d2e29a103fd39693bbca6aef1836040516105cd9190611456565b60405180910390a3505050505050565b60606002805480602002602001604051908101604052809291908181526020016000905b8282101561075e5783829060005260206000209060070201604051806101000160405290816000820160009054906101000a900473ffffffffffffffffffffffffffffffffffffffff1673ffffffffffffffffffffffffffffffffffffffff1673ffffffffffffffffffffffffffffffffffffffff1681526020016001820160009054906101000a900473ffffffffffffffffffffffffffffffffffffffff1673ffffffffffffffffffffffffffffffffffffffff1673ffffffffffffffffffffffffffffffffffffffff168152602001600282015481526020016003820154815260200160048201548152602001600582015481526020016006820160009054906101000a900460ff16600281111561071e5761071d611182565b5b60028111156107305761072f611182565b5b81526020016006820160019054906101000a900460ff16151515158152505081526020019060010190610601565b50505050905090565b6000602052816000526040600020818154811061078357600080fd5b9060005260206000209060070201600091509150508060000160009054906101000a900473ffffffffffffffffffffffffffffffffffffffff16908060010160009054906101000a900473ffffffffffffffffffffffffffffffffffffffff16908060020154908060030154908060040154908060050154908060060160009054906101000a900460ff16908060060160019054906101000a900460ff16905088565b60008060008573ffffffffffffffffffffffffffffffffffffffff1673ffffffffffffffffffffffffffffffffffffffff168152602001908152602001600020828154811061087857610877611505565b5b9060005260206000209060070201905060006002838154811061089e5761089d611505565b5b906000526020600020906007020190508373ffffffffffffffffffffffffffffffffffffffff168260010160009054906101000a900473ffffffffffffffffffffffffffffffffffffffff1673ffffffffffffffffffffffffffffffffffffffff1614610940576040517f08c379a000000000000000000000000000000000000000000000000000000000815260040161093790611591565b60405180910390fd5b6000600281111561095457610953611182565b5b8260060160009054906101000a900460ff16600281111561097857610977611182565b5b146109b8576040517f08c379a00000000000000000000000000000000000000000000000000000000081526004016109af906116d5565b60405180910390fd5b60018260060160006101000a81548160ff021916908360028111156109e0576109df611182565b5b021790555060018160060160006101000a81548160ff02191690836002811115610a0d57610a0c611182565b5b02179055508373ffffffffffffffffffffffffffffffffffffffff168573ffffffffffffffffffffffffffffffffffffffff167faafab9f94340179ff9cefd29621e1772a4b8efab8023163838f1b0a8f6ce5df58460020154604051610a739190611456565b60405180910390a35050505050565b60008060008060008060008060008060008c73ffffffffffffffffffffffffffffffffffffffff1673ffffffffffffffffffffffffffffffffffffffff1681526020019081526020016000208a81548110610ae057610adf611505565b5b906000526020600020906007020190508060000160009054906101000a900473ffffffffffffffffffffffffffffffffffffffff168160010160009054906101000a900473ffffffffffffffffffffffffffffffffffffffff1682600201548360030154846004015485600501548660060160009054906101000a900460ff168760060160019054906101000a900460ff1698509850985098509850985098509850509295985092959890939650565b60015481565b60008060008373ffffffffffffffffffffffffffffffffffffffff1673ffffffffffffffffffffffffffffffffffffffff168152602001908152602001600020805490509050919050565b803414610c23576040517f08c379a0000000000000000000000000000000000000000000000000000000008152600401610c1a90611767565b60405180910390fd5b60006040518061010001604052803373ffffffffffffffffffffffffffffffffffffffff1681526020018673ffffffffffffffffffffffffffffffffffffffff1681526020018581526020016000815260200184815260200183815260200160006002811115610c9657610c95611182565b5b81526020016000151581525090506000803373ffffffffffffffffffffffffffffffffffffffff1673ffffffffffffffffffffffffffffffffffffffff16815260200190815260200160002081908060018154018082558091505060019003906000526020600020906007020160009091909190915060008201518160000160006101000a81548173ffffffffffffffffffffffffffffffffffffffff021916908373ffffffffffffffffffffffffffffffffffffffff16021790555060208201518160010160006101000a81548173ffffffffffffffffffffffffffffffffffffffff021916908373ffffffffffffffffffffffffffffffffffffffff16021790555060408201518160020155606082015181600301556080820151816004015560a0820151816005015560c08201518160060160006101000a81548160ff02191690836002811115610ded57610dec611182565b5b021790555060e08201518160060160016101000a81548160ff021916908315150217905550505060016000815480929190610e27906117b6565b919050555060026040518061010001604052803373ffffffffffffffffffffffffffffffffffffffff1681526020018773ffffffffffffffffffffffffffffffffffffffff1681526020018681526020016000815260200185815260200184815260200160006002811115610e9f57610e9e611182565b5b815260200160001515815250908060018154018082558091505060019003906000526020600020906007020160009091909190915060008201518160000160006101000a81548173ffffffffffffffffffffffffffffffffffffffff021916908373ffffffffffffffffffffffffffffffffffffffff16021790555060208201518160010160006101000a81548173ffffffffffffffffffffffffffffffffffffffff021916908373ffffffffffffffffffffffffffffffffffffffff16021790555060408201518160020155606082015181600301556080820151816004015560a0820151816005015560c08201518160060160006101000a81548160ff02191690836002811115610fb557610fb4611182565b5b021790555060e08201518160060160016101000a81548160ff02191690831515021790555050508473ffffffffffffffffffffffffffffffffffffffff163373ffffffffffffffffffffffffffffffffffffffff167f5001b34ecf2db5b7bbeddcbbe761ec9ecadcc7638018b98ce3e24995b0e946b686868660405161103d939291906117fe565b60405180910390a35050505050565b600080fd5b600073ffffffffffffffffffffffffffffffffffffffff82169050919050565b600061107c82611051565b9050919050565b61108c81611071565b811461109757600080fd5b50565b6000813590506110a981611083565b92915050565b6000819050919050565b6110c2816110af565b81146110cd57600080fd5b50565b6000813590506110df816110b9565b92915050565b6000806000606084860312156110fe576110fd61104c565b5b600061110c8682870161109a565b935050602061111d8682870161109a565b925050604061112e868287016110d0565b9150509250925092565b600081519050919050565b600082825260208201905092915050565b6000819050602082019050919050565b61116d81611071565b82525050565b61117c816110af565b82525050565b7f4e487b7100000000000000000000000000000000000000000000000000000000600052602160045260246000fd5b600381106111c2576111c1611182565b5b50565b60008190506111d3826111b1565b919050565b60006111e3826111c5565b9050919050565b6111f3816111d8565b82525050565b60008115159050919050565b61120e816111f9565b82525050565b6101008201600082015161122b6000850182611164565b50602082015161123e6020850182611164565b5060408201516112516040850182611173565b5060608201516112646060850182611173565b5060808201516112776080850182611173565b5060a082015161128a60a0850182611173565b5060c082015161129d60c08501826111ea565b5060e08201516112b060e0850182611205565b50505050565b60006112c28383611214565b6101008301905092915050565b6000602082019050919050565b60006112e782611138565b6112f18185611143565b93506112fc83611154565b8060005b8381101561132d57815161131488826112b6565b975061131f836112cf565b925050600181019050611300565b5085935050505092915050565b6000602082019050818103600083015261135481846112dc565b905092915050565b600080604083850312156113735761137261104c565b5b60006113818582860161109a565b9250506020611392858286016110d0565b9150509250929050565b6113a581611071565b82525050565b6113b4816110af565b82525050565b6113c3816111d8565b82525050565b6113d2816111f9565b82525050565b6000610100820190506113ee600083018b61139c565b6113fb602083018a61139c565b61140860408301896113ab565b61141560608301886113ab565b61142260808301876113ab565b61142f60a08301866113ab565b61143c60c08301856113ba565b61144960e08301846113c9565b9998505050505050505050565b600060208201905061146b60008301846113ab565b92915050565b6000602082840312156114875761148661104c565b5b60006114958482850161109a565b91505092915050565b600080600080608085870312156114b8576114b761104c565b5b60006114c68782880161109a565b94505060206114d7878288016110d0565b93505060406114e8878288016110d0565b92505060606114f9878288016110d0565b91505092959194509250565b7f4e487b7100000000000000000000000000000000000000000000000000000000600052603260045260246000fd5b600082825260208201905092915050565b7f496e76616c69642072656365697665722e000000000000000000000000000000600082015250565b600061157b601183611534565b915061158682611545565b602082019050919050565b600060208201905081810360008301526115aa8161156e565b9050919050565b7f536869706d656e74206e6f7420696e207472616e7369742e0000000000000000600082015250565b60006115e7601883611534565b91506115f2826115b1565b602082019050919050565b60006020820190508181036000830152611616816115da565b9050919050565b7f536869706d656e7420616c726561647920706169642e00000000000000000000600082015250565b6000611653601683611534565b915061165e8261161d565b602082019050919050565b6000602082019050818103600083015261168281611646565b9050919050565b7f536869706d656e7420616c726561647920696e207472616e7369742e00000000600082015250565b60006116bf601c83611534565b91506116ca82611689565b602082019050919050565b600060208201905081810360008301526116ee816116b2565b9050919050565b7f5061796d656e7420416d6f756e74206d757374206d617463682074686520707260008201527f6963652e00000000000000000000000000000000000000000000000000000000602082015250565b6000611751602483611534565b915061175c826116f5565b604082019050919050565b6000602082019050818103600083015261178081611744565b9050919050565b7f4e487b7100000000000000000000000000000000000000000000000000000000600052601160045260246000fd5b60006117c1826110af565b91507fffffffffffffffffffffffffffffffffffffffffffffffffffffffffffffffff82036117f3576117f2611787565b5b600182019050919050565b600060608201905061181360008301866113ab565b61182060208301856113ab565b61182d60408301846113ab565b94935050505056fea26469706673582212204621ebc424fab9e6a715cc3b413532be8ed8ec6515f23033eb9d3c0013c9940764736f6c63430008120033",
  "linkReferences": {},
  "deployedLinkReferences": {}
}